S01700004763634170706C69636174696F6E332E7372656359
S11300000C9434000C943E000C943E000C943E007E
S11300100C943E000C943E000C943E000C943E0064
S11300200C943E000C943E000C943E000C943E0054
S11300300C943E000C943E000C943E000C943E0044
S11300400C943E000C943E000C943E000C943E0034
S11300500C943E000C943E000C943E000C943E0024
S11300600C943E000C943E0011241FBECFEFD8E048
S1130070DEBFCDBF0E9464000C9488000C94000085
S11300809093C5008093C40088E18093C10086E00A
S11300908093C20008959091C00095FFFCCF809397
S11300A0C60008958F70806480937C00EAE7F0E0D6
S11300B080818064808380917A0086FDFCCF80916A
S11300C0780090917900089583E390E00E944000C5
S11300D0EAE7F0E080818068808380E00E9452003B
S11300E0D82F81E00E945200C82F80E50E944B0067
S11300F08D2F0E944B008C2F0E944B002FEF83ED1D
S113010090E3215080409040E1F700C00000E5CF2B
S1070110F894FFCF8D
S9030000FC
